{
  "_format": "hh-sol-artifact-1",
  "contractName": "Assessment",
  "sourceName": "contracts/Assessment.sol",
  "abi": [
    {
      "inputs": [
        {
          "internalType": "uint256",
          "name": "initBalance",
          "type": "uint256"
        }
      ],
      "stateMutability": "payable",
      "type": "constructor"
    },
    {
      "anonymous": false,
      "inputs": [
        {
          "indexed": false,
          "internalType": "uint256",
          "name": "amount",
          "type": "uint256"
        },
        {
          "indexed": false,
          "internalType": "address",
          "name": "from",
          "type": "address"
        }
      ],
      "name": "Deposit",
      "type": "event"
    },
    {
      "anonymous": false,
      "inputs": [
        {
          "indexed": true,
          "internalType": "address",
          "name": "to",
          "type": "address"
        },
        {
          "indexed": true,
          "internalType": "uint256",
          "name": "gameId",
          "type": "uint256"
        },
        {
          "indexed": false,
          "internalType": "uint256",
          "name": "amount",
          "type": "uint256"
        }
      ],
      "name": "ExclusiveRedeemed",
      "type": "event"
    },
    {
      "anonymous": false,
      "inputs": [
        {
          "indexed": true,
          "internalType": "address",
          "name": "to",
          "type": "address"
        },
        {
          "indexed": false,
          "internalType": "uint256",
          "name": "amount",
          "type": "uint256"
        }
      ],
      "name": "Redeem",
      "type": "event"
    },
    {
      "anonymous": false,
      "inputs": [
        {
          "indexed": false,
          "internalType": "address",
          "name": "to",
          "type": "address"
        },
        {
          "indexed": false,
          "internalType": "uint256",
          "name": "amount",
          "type": "uint256"
        }
      ],
      "name": "Transfer",
      "type": "event"
    },
    {
      "anonymous": false,
      "inputs": [
        {
          "indexed": false,
          "internalType": "uint256",
          "name": "amount",
          "type": "uint256"
        },
        {
          "indexed": false,
          "internalType": "address",
          "name": "to",
          "type": "address"
        }
      ],
      "name": "Withdraw",
      "type": "event"
    },
    {
      "inputs": [],
      "name": "balance",
      "outputs": [
        {
          "internalType": "uint256",
          "name": "",
          "type": "uint256"
        }
      ],
      "stateMutability": "view",
      "type": "function"
    },
    {
      "inputs": [
        {
          "internalType": "uint256",
          "name": "_amount",
          "type": "uint256"
        }
      ],
      "name": "deposit",
      "outputs": [],
      "stateMutability": "payable",
      "type": "function"
    },
    {
      "inputs": [
        {
          "internalType": "uint256",
          "name": "",
          "type": "uint256"
        }
      ],
      "name": "gamePrices",
      "outputs": [
        {
          "internalType": "uint256",
          "name": "",
          "type": "uint256"
        }
      ],
      "stateMutability": "view",
      "type": "function"
    },
    {
      "inputs": [],
      "name": "getBalance",
      "outputs": [
        {
          "internalType": "uint256",
          "name": "",
          "type": "uint256"
        }
      ],
      "stateMutability": "view",
      "type": "function"
    },
    {
      "inputs": [],
      "name": "owner",
      "outputs": [
        {
          "internalType": "address payable",
          "name": "",
          "type": "address"
        }
      ],
      "stateMutability": "view",
      "type": "function"
    },
    {
      "inputs": [
        {
          "internalType": "uint256",
          "name": "_gameId",
          "type": "uint256"
        }
      ],
      "name": "redeem",
      "outputs": [],
      "stateMutability": "nonpayable",
      "type": "function"
    },
    {
      "inputs": [
        {
          "internalType": "address payable",
          "name": "_to",
          "type": "address"
        },
        {
          "internalType": "uint256",
          "name": "_amount",
          "type": "uint256"
        }
      ],
      "name": "transfer",
      "outputs": [],
      "stateMutability": "nonpayable",
      "type": "function"
    },
    {
      "inputs": [
        {
          "internalType": "uint256",
          "name": "_amount",
          "type": "uint256"
        }
      ],
      "name": "withdraw",
      "outputs": [],
      "stateMutability": "nonpayable",
      "type": "function"
    }
  ],
  "bytecode": "0x6080604052604051611239380380611239833981810160405281019061002591906101b0565b336000806101000a81548173ffffffffffffffffffffffffffffffffffffffff021916908373ffffffffffffffffffffffffffffffffffffffff160217905550806001819055506001600260006001815260200190815260200160002081905550600280600060028152602001908152602001600020819055506003600260006003815260200190815260200160002081905550600460026000600481526020019081526020016000208190555060056002600060058152602001908152602001600020819055506006600260006006815260200190815260200160002081905550600760026000600781526020019081526020016000208190555060086002600060088152602001908152602001600020819055506009600260006009815260200190815260200160002081905550600a60026000600a815260200190815260200160002081905550506101dd565b600080fd5b6000819050919050565b61018d8161017a565b811461019857600080fd5b50565b6000815190506101aa81610184565b92915050565b6000602082840312156101c6576101c5610175565b5b60006101d48482850161019b565b91505092915050565b61104d806101ec6000396000f3fe60806040526004361061007b5760003560e01c8063a9059cbb1161004e578063a9059cbb1461013c578063b69ef8a814610165578063b6b55f2514610190578063db006a75146101ac5761007b565b806312065fe0146100805780632e1a7d4d146100ab57806385c69feb146100d45780638da5cb5b14610111575b600080fd5b34801561008c57600080fd5b506100956101d5565b6040516100a2919061095f565b60405180910390f35b3480156100b757600080fd5b506100d260048036038101906100cd91906109ab565b6101df565b005b3480156100e057600080fd5b506100fb60048036038101906100f691906109ab565b61037a565b604051610108919061095f565b60405180910390f35b34801561011d57600080fd5b50610126610392565b6040516101339190610a19565b60405180910390f35b34801561014857600080fd5b50610163600480360381019061015e9190610a60565b6103b6565b005b34801561017157600080fd5b5061017a6105f2565b604051610187919061095f565b60405180910390f35b6101aa60048036038101906101a591906109ab565b6105f8565b005b3480156101b857600080fd5b506101d360048036038101906101ce91906109ab565b610750565b005b6000600154905090565b60008054906101000a900473ffffffffffffffffffffffffffffffffffffffff1673ffffffffffffffffffffffffffffffffffffffff163373ffffffffffffffffffffffffffffffffffffffff161461026d576040517f08c379a000000000000000000000000000000000000000000000000000000000815260040161026490610b23565b60405180910390fd5b60008111801561027f57506001548111155b6102be576040517f08c379a00000000000000000000000000000000000000000000000000000000081526004016102b590610b8f565b60405180910390fd5b80600160008282546102d09190610bde565b9250508190555060008054906101000a900473ffffffffffffffffffffffffffffffffffffffff1673ffffffffffffffffffffffffffffffffffffffff166108fc829081150290604051600060405180830381858888f1935050505015801561033d573d6000803e3d6000fd5b507f8353ffcac0876ad14e226d9783c04540bfebf13871e868157d2a391cad98e918813360405161036f929190610c33565b60405180910390a150565b60026020528060005260406000206000915090505481565b60008054906101000a900473ffffffffffffffffffffffffffffffffffffffff1681565b60008054906101000a900473ffffffffffffffffffffffffffffffffffffffff1673ffffffffffffffffffffffffffffffffffffffff163373ffffffffffffffffffffffffffffffffffffffff1614610444576040517f08c379a000000000000000000000000000000000000000000000000000000000815260040161043b90610b23565b60405180910390fd5b6000811180156104555750600a8111155b610494576040517f08c379a000000000000000000000000000000000000000000000000000000000815260040161048b90610cce565b60405180910390fd5b8060015410156104d9576040517f08c379a00000000000000000000000000000000000000000000000000000000081526004016104d090610d3a565b60405180910390fd5b80600160008282546104eb9190610bde565b925050819055508173ffffffffffffffffffffffffffffffffffffffff166108fc829081150290604051600060405180830381858888f19350505050158015610538573d6000803e3d6000fd5b506000670de0b6b3a76400008261054f9190610d5a565b9050678ac7230489e8000081111561056d57678ac7230489e8000090505b8273ffffffffffffffffffffffffffffffffffffffff166108fc829081150290604051600060405180830381858888f193505050501580156105b3573d6000803e3d6000fd5b507f69ca02dd4edd7bf0a4abb9ed3b7af3f14778db5d61921c7dc7cd545266326de283836040516105e5929190610dfb565b60405180910390a1505050565b60015481565b6000600154905060008054906101000a900473ffffffffffffffffffffffffffffffffffffffff1673ffffffffffffffffffffffffffffffffffffffff163373ffffffffffffffffffffffffffffffffffffffff161461068d576040517f08c379a000000000000000000000000000000000000000000000000000000000815260040161068490610b23565b60405180910390fd5b60008211801561069e5750600a8211155b6106dd576040517f08c379a00000000000000000000000000000000000000000000000000000000081526004016106d490610e96565b60405180910390fd5b81600160008282546106ef9190610eb6565b9250508190555081816107029190610eb6565b6001541461071357610712610eea565b5b7f4bcc17093cdf51079c755de089be5a85e70fa374ec656c194480fbdcda224a538233604051610744929190610c33565b60405180910390a15050565b60008054906101000a900473ffffffffffffffffffffffffffffffffffffffff1673ffffffffffffffffffffffffffffffffffffffff163373ffffffffffffffffffffffffffffffffffffffff16146107de576040517f08c379a00000000000000000000000000000000000000000000000000000000081526004016107d590610b23565b60405180910390fd5b600181101580156107f05750600a8111155b61082f576040517f08c379a000000000000000000000000000000000000000000000000000000000815260040161082690610f65565b60405180910390fd5b60006002600083815260200190815260200160002054905080600154101561088c576040517f08c379a000000000000000000000000000000000000000000000000000000000815260040161088390610ff7565b60405180910390fd5b806001600082825461089e9190610bde565b925050819055503373ffffffffffffffffffffffffffffffffffffffff167f222838db2794d11532d940e8dec38ae307ed0b63cd97c233322e221f998767a6826040516108eb919061095f565b60405180910390a2813373ffffffffffffffffffffffffffffffffffffffff167faaf76ef5d1573d8baed2ba94549513e11bdb6368d90605d223f64a68cdd94a1a8360405161093a919061095f565b60405180910390a35050565b6000819050919050565b61095981610946565b82525050565b60006020820190506109746000830184610950565b92915050565b600080fd5b61098881610946565b811461099357600080fd5b50565b6000813590506109a58161097f565b92915050565b6000602082840312156109c1576109c061097a565b5b60006109cf84828501610996565b91505092915050565b600073ffffffffffffffffffffffffffffffffffffffff82169050919050565b6000610a03826109d8565b9050919050565b610a13816109f8565b82525050565b6000602082019050610a2e6000830184610a0a565b92915050565b610a3d816109f8565b8114610a4857600080fd5b50565b600081359050610a5a81610a34565b92915050565b60008060408385031215610a7757610a7661097a565b5b6000610a8585828601610a4b565b9250506020610a9685828601610996565b9150509250929050565b600082825260208201905092915050565b7f596f7520617265206e6f7420746865206f776e6572206f66207468697320616360008201527f636f756e74000000000000000000000000000000000000000000000000000000602082015250565b6000610b0d602583610aa0565b9150610b1882610ab1565b604082019050919050565b60006020820190508181036000830152610b3c81610b00565b9050919050565b7f496e76616c6964207769746864726177616c20616d6f756e7400000000000000600082015250565b6000610b79601983610aa0565b9150610b8482610b43565b602082019050919050565b60006020820190508181036000830152610ba881610b6c565b9050919050565b7f4e487b7100000000000000000000000000000000000000000000000000000000600052601160045260246000fd5b6000610be982610946565b9150610bf483610946565b9250828203905081811115610c0c57610c0b610baf565b5b92915050565b6000610c1d826109d8565b9050919050565b610c2d81610c12565b82525050565b6000604082019050610c486000830185610950565b610c556020830184610c24565b9392505050565b7f5472616e7366657220616d6f756e74206d757374206265206265747765656e2060008201527f3120616e6420313020746f6b656e730000000000000000000000000000000000602082015250565b6000610cb8602f83610aa0565b9150610cc382610c5c565b604082019050919050565b60006020820190508181036000830152610ce781610cab565b9050919050565b7f496e73756666696369656e742062616c616e6365000000000000000000000000600082015250565b6000610d24601483610aa0565b9150610d2f82610cee565b602082019050919050565b60006020820190508181036000830152610d5381610d17565b9050919050565b6000610d6582610946565b9150610d7083610946565b9250828202610d7e81610946565b91508282048414831517610d9557610d94610baf565b5b5092915050565b6000819050919050565b6000610dc1610dbc610db7846109d8565b610d9c565b6109d8565b9050919050565b6000610dd382610da6565b9050919050565b6000610de582610dc8565b9050919050565b610df581610dda565b82525050565b6000604082019050610e106000830185610dec565b610e1d6020830184610950565b9392505050565b7f4465706f73697420616d6f756e74206d757374206265206265747765656e203160008201527f20616e6420313020746f6b656e73000000000000000000000000000000000000602082015250565b6000610e80602e83610aa0565b9150610e8b82610e24565b604082019050919050565b60006020820190508181036000830152610eaf81610e73565b9050919050565b6000610ec182610946565b9150610ecc83610946565b9250828201905080821115610ee457610ee3610baf565b5b92915050565b7f4e487b7100000000000000000000000000000000000000000000000000000000600052600160045260246000fd5b7f496e76616c69642067616d652049440000000000000000000000000000000000600082015250565b6000610f4f600f83610aa0565b9150610f5a82610f19565b602082019050919050565b60006020820190508181036000830152610f7e81610f42565b9050919050565b7f496e73756666696369656e742062616c616e636520746f2072656465656d207460008201527f6869732067616d65000000000000000000000000000000000000000000000000602082015250565b6000610fe1602883610aa0565b9150610fec82610f85565b604082019050919050565b6000602082019050818103600083015261101081610fd4565b905091905056fea2646970667358221220a7c7b0b7c6c5d62f3be1016aec1c64edd9057bae34142558d96df118ec982eb264736f6c63430008110033",
  "linkReferences": {},
  "deployedLinkReferences": {}
}